{
  "address": "0xE85F9a5C4BEFd92ECBFa8BDb9732992c3A1F4695",
  "abi": [
    {
      "inputs": [],
      "stateMutability": "nonpayable",
      "type": "constructor"
    },
    {
      "anonymous": false,
      "inputs": [
        {
          "indexed": false,
          "internalType": "uint256",
          "name": "requestId",
          "type": "uint256"
        },
        {
          "indexed": false,
          "internalType": "uint256[]",
          "name": "randomWords",
          "type": "uint256[]"
        }
      ],
      "name": "RequestFulfilled",
      "type": "event"
    },
    {
      "anonymous": false,
      "inputs": [
        {
          "indexed": false,
          "internalType": "uint256",
          "name": "requestId",
          "type": "uint256"
        },
        {
          "indexed": false,
          "internalType": "uint32",
          "name": "numWords",
          "type": "uint32"
        }
      ],
      "name": "RequestSent",
      "type": "event"
    },
    {
      "anonymous": false,
      "inputs": [
        {
          "indexed": false,
          "internalType": "uint256",
          "name": "bidAmount",
          "type": "uint256"
        },
        {
          "indexed": false,
          "internalType": "address",
          "name": "bidder",
          "type": "address"
        },
        {
          "indexed": false,
          "internalType": "string",
          "name": "SkillName",
          "type": "string"
        }
      ],
      "name": "skillAuction",
      "type": "event"
    },
    {
      "inputs": [
        {
          "internalType": "address",
          "name": "",
          "type": "address"
        }
      ],
      "name": "Inventory",
      "outputs": [
        {
          "internalType": "uint256",
          "name": "healthPotion",
          "type": "uint256"
        },
        {
          "internalType": "uint256",
          "name": "qiRecoveryPill",
          "type": "uint256"
        },
        {
          "internalType": "uint256",
          "name": "revivePotion",
          "type": "uint256"
        },
        {
          "internalType": "uint256",
          "name": "attackEnhancePotion",
          "type": "uint256"
        },
        {
          "internalType": "uint256",
          "name": "goldDropEnhancePotion",
          "type": "uint256"
        }
      ],
      "stateMutability": "view",
      "type": "function"
    },
    {
      "inputs": [],
      "name": "Quest1",
      "outputs": [
        {
          "internalType": "string",
          "name": "",
          "type": "string"
        }
      ],
      "stateMutability": "nonpayable",
      "type": "function"
    },
    {
      "inputs": [],
      "name": "Quest2",
      "outputs": [
        {
          "internalType": "string",
          "name": "",
          "type": "string"
        }
      ],
      "stateMutability": "nonpayable",
      "type": "function"
    },
    {
      "inputs": [
        {
          "internalType": "string",
          "name": "string1",
          "type": "string"
        },
        {
          "internalType": "string",
          "name": "string2",
          "type": "string"
        }
      ],
      "name": "equalify",
      "outputs": [
        {
          "internalType": "bool",
          "name": "",
          "type": "bool"
        }
      ],
      "stateMutability": "pure",
      "type": "function"
    },
    {
      "inputs": [
        {
          "internalType": "string",
          "name": "",
          "type": "string"
        }
      ],
      "name": "materialValue",
      "outputs": [
        {
          "internalType": "uint256",
          "name": "",
          "type": "uint256"
        }
      ],
      "stateMutability": "view",
      "type": "function"
    },
    {
      "inputs": [],
      "name": "newGame",
      "outputs": [],
      "stateMutability": "nonpayable",
      "type": "function"
    },
    {
      "inputs": [
        {
          "internalType": "address",
          "name": "",
          "type": "address"
        }
      ],
      "name": "player",
      "outputs": [
        {
          "internalType": "string",
          "name": "name",
          "type": "string"
        },
        {
          "internalType": "string",
          "name": "image",
          "type": "string"
        },
        {
          "internalType": "string",
          "name": "level",
          "type": "string"
        },
        {
          "internalType": "uint256",
          "name": "maxHealth",
          "type": "uint256"
        },
        {
          "internalType": "uint256",
          "name": "health",
          "type": "uint256"
        },
        {
          "internalType": "uint256",
          "name": "attackDamage",
          "type": "uint256"
        },
        {
          "internalType": "uint256",
          "name": "defense",
          "type": "uint256"
        },
        {
          "internalType": "string",
          "name": "weapon",
          "type": "string"
        },
        {
          "internalType": "uint256",
          "name": "qi",
          "type": "uint256"
        },
        {
          "internalType": "uint256",
          "name": "maxQi",
          "type": "uint256"
        },
        {
          "internalType": "uint256",
          "name": "goldCoin",
          "type": "uint256"
        }
      ],
      "stateMutability": "view",
      "type": "function"
    },
    {
      "inputs": [
        {
          "internalType": "address",
          "name": "",
          "type": "address"
        },
        {
          "internalType": "uint256",
          "name": "",
          "type": "uint256"
        }
      ],
      "name": "quest",
      "outputs": [
        {
          "internalType": "string",
          "name": "quest_name",
          "type": "string"
        },
        {
          "internalType": "uint256",
          "name": "characterTokenId",
          "type": "uint256"
        },
        {
          "internalType": "bool",
          "name": "isCompleted",
          "type": "bool"
        }
      ],
      "stateMutability": "view",
      "type": "function"
    },
    {
      "inputs": [
        {
          "internalType": "uint256",
          "name": "",
          "type": "uint256"
        }
      ],
      "name": "s_requests",
      "outputs": [
        {
          "internalType": "bool",
          "name": "fulfilled",
          "type": "bool"
        },
        {
          "internalType": "bool",
          "name": "exists",
          "type": "bool"
        }
      ],
      "stateMutability": "view",
      "type": "function"
    },
    {
      "inputs": [
        {
          "internalType": "uint16",
          "name": "num1",
          "type": "uint16"
        },
        {
          "internalType": "uint16",
          "name": "num2",
          "type": "uint16"
        },
        {
          "internalType": "uint16",
          "name": "num3",
          "type": "uint16"
        },
        {
          "internalType": "uint16",
          "name": "num4",
          "type": "uint16"
        },
        {
          "internalType": "uint16",
          "name": "num5",
          "type": "uint16"
        }
      ],
      "name": "store",
      "outputs": [],
      "stateMutability": "nonpayable",
      "type": "function"
    }
  ],
  "transactionHash": "0x89d03049c603c09d11bb5dc61a5b3927ea7dd5c6811f59c064280939a49d4120",
  "args": [],
  "numDeployments": 2,
  "solcInputHash": "a26c55c55a45255677d674a1e338d36f",
  "bytecode": "0x6080604052604051806080016040528060405180608001604052806043815260200162002c4860439139815260200160405180608001604052806043815260200162002d1160439139815260200160405180608001604052806043815260200162002cce60439139815260200160405180608001604052806043815260200162002c8b6043913981525060019060046200009b9291906200016a565b50348015620000a957600080fd5b5060646005604051620000bc90620002b2565b9081526020016040518091039020819055506103e86005604051620000e19062000319565b9081526020016040518091039020819055506127106005604051620001069062000380565b908152602001604051809103902081905550620186a060056040516200012c90620003e7565b908152602001604051809103902081905550620186a0600560405162000152906200044e565b908152602001604051809103902081905550620007c6565b828054828255906000526020600020908101928215620001b7579160200282015b82811115620001b6578251829081620001a59190620006df565b50916020019190600101906200018b565b5b509050620001c69190620001ca565b5090565b5b80821115620001ee5760008181620001e49190620001f2565b50600101620001cb565b5090565b5080546200020090620004ce565b6000825580601f1062000214575062000235565b601f01602090049060005260206000209081019062000234919062000238565b5b50565b5b808211156200025357600081600090555060010162000239565b5090565b600081905092915050565b7f6865616c7468506f74696f6e0000000000000000000000000000000000000000600082015250565b60006200029a600c8362000257565b9150620002a78262000262565b600c82019050919050565b6000620002bf826200028b565b9150819050919050565b7f71695265636f7665727950696c6c000000000000000000000000000000000000600082015250565b600062000301600e8362000257565b91506200030e82620002c9565b600e82019050919050565b60006200032682620002f2565b9150819050919050565b7f726576697665506f74696f6e0000000000000000000000000000000000000000600082015250565b600062000368600c8362000257565b9150620003758262000330565b600c82019050919050565b60006200038d8262000359565b9150819050919050565b7f61747461636b456e68616e6365506f74696f6e00000000000000000000000000600082015250565b6000620003cf60138362000257565b9150620003dc8262000397565b601382019050919050565b6000620003f482620003c0565b9150819050919050565b7f676f6c6444726f70456e68616e6365506f74696f6e0000000000000000000000600082015250565b60006200043660158362000257565b91506200044382620003fe565b601582019050919050565b60006200045b8262000427565b9150819050919050565b600081519050919050565b7f4e487b7100000000000000000000000000000000000000000000000000000000600052604160045260246000fd5b7f4e487b7100000000000000000000000000000000000000000000000000000000600052602260045260246000fd5b60006002820490506001821680620004e757607f821691505b602082108103620004fd57620004fc6200049f565b5b50919050565b60008190508160005260206000209050919050565b60006020601f8301049050919050565b600082821b905092915050565b600060088302620005677fffffffffffffffffffffffffffffffffffffffffffffffffffffffffffffffff8262000528565b62000573868362000528565b95508019841693508086168417925050509392505050565b6000819050919050565b6000819050919050565b6000620005c0620005ba620005b4846200058b565b62000595565b6200058b565b9050919050565b6000819050919050565b620005dc836200059f565b620005f4620005eb82620005c7565b84845462000535565b825550505050565b600090565b6200060b620005fc565b62000618818484620005d1565b505050565b5b8181101562000640576200063460008262000601565b6001810190506200061e565b5050565b601f8211156200068f57620006598162000503565b620006648462000518565b8101602085101562000674578190505b6200068c620006838562000518565b8301826200061d565b50505b505050565b600082821c905092915050565b6000620006b46000198460080262000694565b1980831691505092915050565b6000620006cf8383620006a1565b9150826002028217905092915050565b620006ea8262000465565b67ffffffffffffffff81111562000706576200070562000470565b5b620007128254620004ce565b6200071f82828562000644565b600060209050601f83116001811462000757576000841562000742578287015190505b6200074e8582620006c1565b865550620007be565b601f198416620007678662000503565b60005b8281101562000791578489015182556001820191506020850194506020810190506200076a565b86831015620007b15784890151620007ad601f891682620006a1565b8355505b6001600288020188555050505b505050505050565b61247280620007d66000396000f3fe608060405234801561001057600080fd5b506004361061009e5760003560e01c80637d03f5f3116100665780637d03f5f31461017b5780639b7b93c714610185578063a168fa89146101b7578063c3f57fbb146101e8578063f1c87290146102185761009e565b8063160162bf146100a357806337a6afd7146100bf5780634c54e1b5146100ef57806360a08053146101295780637ae5bc6614610147575b600080fd5b6100bd60048036038101906100b89190611549565b610236565b005b6100d960048036038101906100d4919061170a565b6105a4565b6040516100e6919061179d565b60405180910390f35b61010960048036038101906101049190611816565b61060d565b6040516101209b9a999897969594939291906118db565b60405180910390f35b610131610887565b60405161013e91906119a2565b60405180910390f35b610161600480360381019061015c9190611816565b6109fa565b6040516101729594939291906119c4565b60405180910390f35b610183610a30565b005b61019f600480360381019061019a9190611a43565b610cb4565b6040516101ae93929190611a83565b60405180910390f35b6101d160048036038101906101cc9190611ac1565b610d90565b6040516101df929190611aee565b60405180910390f35b61020260048036038101906101fd9190611b17565b610dce565b60405161020f9190611b60565b60405180910390f35b610220610dfc565b60405161022d91906119a2565b60405180910390f35b6000600560405161024690611bd2565b9081526020016040518091039020548261ffff166102649190611c16565b600560405161027290611ca4565b9081526020016040518091039020548461ffff166102909190611c16565b600560405161029e90611d05565b9081526020016040518091039020548661ffff166102bc9190611c16565b60056040516102ca90611d66565b9081526020016040518091039020548861ffff166102e89190611c16565b60056040516102f690611dc7565b9081526020016040518091039020548a61ffff166103149190611c16565b61031e9190611ddc565b6103289190611ddc565b6103329190611ddc565b61033c9190611ddc565b90506000811180156103905750600360003373ffffffffffffffffffffffffffffffffffffffff1673ffffffffffffffffffffffffffffffffffffffff168152602001908152602001600020600a01548111155b6103cf576040517f08c379a00000000000000000000000000000000000000000000000000000000081526004016103c690611e82565b60405180910390fd5b80600360003373ffffffffffffffffffffffffffffffffffffffff1673ffffffffffffffffffffffffffffffffffffffff168152602001908152602001600020600a0160008282546104219190611ea2565b925050819055508561ffff16600460003373ffffffffffffffffffffffffffffffffffffffff1673ffffffffffffffffffffffffffffffffffffffff168152602001908152602001600020600001600082825461047e9190611ddc565b925050819055508461ffff16600460003373ffffffffffffffffffffffffffffffffffffffff1673ffffffffffffffffffffffffffffffffffffffff16815260200190815260200160002060010160008282546104db9190611ddc565b925050819055508361ffff16600460003373ffffffffffffffffffffffffffffffffffffffff1673ffffffffffffffffffffffffffffffffffffffff16815260200190815260200160002060030160008282546105389190611ddc565b925050819055508261ffff16600460003373ffffffffffffffffffffffffffffffffffffffff1673ffffffffffffffffffffffffffffffffffffffff16815260200190815260200160002060040160008282546105959190611ddc565b92505081905550505050505050565b6000816040516020016105b79190611f07565b60405160208183030381529060405280519060200120836040516020016105de9190611f07565b60405160208183030381529060405280519060200120036106025760019050610607565b600090505b92915050565b600360205280600052604060002060009150905080600001805461063090611f4d565b80601f016020809104026020016040519081016040528092919081815260200182805461065c90611f4d565b80156106a95780601f1061067e576101008083540402835291602001916106a9565b820191906000526020600020905b81548152906001019060200180831161068c57829003601f168201915b5050505050908060010180546106be90611f4d565b80601f01602080910402602001604051908101604052809291908181526020018280546106ea90611f4d565b80156107375780601f1061070c57610100808354040283529160200191610737565b820191906000526020600020905b81548152906001019060200180831161071a57829003601f168201915b50505050509080600201805461074c90611f4d565b80601f016020809104026020016040519081016040528092919081815260200182805461077890611f4d565b80156107c55780601f1061079a576101008083540402835291602001916107c5565b820191906000526020600020905b8154815290600101906020018083116107a857829003601f168201915b5050505050908060030154908060040154908060050154908060060154908060070180546107f290611f4d565b80601f016020809104026020016040519081016040528092919081815260200182805461081e90611f4d565b801561086b5780601f106108405761010080835404028352916020019161086b565b820191906000526020600020905b81548152906001019060200180831161084e57829003601f168201915b50505050509080600801549080600901549080600a015490508b565b606060011515600260003373ffffffffffffffffffffffffffffffffffffffff1673ffffffffffffffffffffffffffffffffffffffff1681526020019081526020016000206000815481106108df576108de611f7e565b5b906000526020600020906004020160030160009054906101000a900460ff16151514610940576040517f08c379a000000000000000000000000000000000000000000000000000000000815260040161093790611ff9565b60405180910390fd5b60011515600260003373ffffffffffffffffffffffffffffffffffffffff1673ffffffffffffffffffffffffffffffffffffffff16815260200190815260200160002060018154811061099657610995611f7e565b5b906000526020600020906004020160030160009054906101000a900460ff161515036109f7576040517f08c379a00000000000000000000000000000000000000000000000000000000081526004016109ee9061208b565b60405180910390fd5b90565b60046020528060005260406000206000915090508060000154908060010154908060020154908060030154908060040154905085565b60006001600081548110610a4757610a46611f7e565b5b906000526020600020018054610a5c90611f4d565b80601f0160208091040260200160405190810160405280929190818152602001828054610a8890611f4d565b8015610ad55780601f10610aaa57610100808354040283529160200191610ad5565b820191906000526020600020905b815481529060010190602001808311610ab857829003601f168201915b505050505090506040518061016001604052806040518060400160405280600881526020017f5869616f2079616e00000000000000000000000000000000000000000000000081525081526020018281526020016040518060400160405280601381526020017f74776f207374617220646f75207a686920716900000000000000000000000000815250815260200160c8815260200160c8815260200160008152602001600081526020016040518060400160405280600781526020017f6e6f7468696e6700000000000000000000000000000000000000000000000000815250815260200160008152602001600081526020016000815250600360003373ffffffffffffffffffffffffffffffffffffffff1673ffffffffffffffffffffffffffffffffffffffff1681526020019081526020016000206000820151816000019081610c229190612257565b506020820151816001019081610c389190612257565b506040820151816002019081610c4e9190612257565b50606082015181600301556080820151816004015560a0820151816005015560c0820151816006015560e0820151816007019081610c8c9190612257565b506101008201518160080155610120820151816009015561014082015181600a015590505050565b60026020528160005260406000208181548110610cd057600080fd5b906000526020600020906004020160009150915050806000018054610cf490611f4d565b80601f0160208091040260200160405190810160405280929190818152602001828054610d2090611f4d565b8015610d6d5780601f10610d4257610100808354040283529160200191610d6d565b820191906000526020600020905b815481529060010190602001808311610d5057829003601f168201915b5050505050908060010154908060030160009054906101000a900460ff16905083565b60006020528060005260406000206000915090508060000160009054906101000a900460ff16908060000160019054906101000a900460ff16905082565b6005818051602081018201805184825260208301602085012081835280955050505050506000915090505481565b60606000600360003373ffffffffffffffffffffffffffffffffffffffff1673ffffffffffffffffffffffffffffffffffffffff1681526020019081526020016000206005015411610e83576040517f08c379a0000000000000000000000000000000000000000000000000000000008152600401610e7a9061239b565b60405180910390fd5b60011515600260003373ffffffffffffffffffffffffffffffffffffffff1673ffffffffffffffffffffffffffffffffffffffff168152602001908152602001600020600081548110610ed957610ed8611f7e565b5b906000526020600020906004020160030160009054906101000a900460ff16151503610f3a576040517f08c379a0000000000000000000000000000000000000000000000000000000008152600401610f319061208b565b60405180910390fd5b600460003373ffffffffffffffffffffffffffffffffffffffff1673ffffffffffffffffffffffffffffffffffffffff16815260200190815260200160002060050160405180604001604052806040518060400160405280600b81526020017f76616363756d2070616c6d0000000000000000000000000000000000000000008152508152602001600a815250908060018154018082558091505060019003906000526020600020906002020160009091909190915060008201518160000190816110059190612257565b50602082015181600101555050600460003373ffffffffffffffffffffffffffffffffffffffff1673ffffffffffffffffffffffffffffffffffffffff16815260200190815260200160002060050160405180604001604052806040518060400160405280600c81526020017f6f6374616e6520626c617374000000000000000000000000000000000000000081525081526020016014815250908060018154018082558091505060019003906000526020600020906002020160009091909190915060008201518160000190816110dd9190612257565b506020820151816001015550506040518061016001604052806040518060400160405280600881526020017f7869616f2079616e0000000000000000000000000000000000000000000000008152508152602001600360003373ffffffffffffffffffffffffffffffffffffffff1673ffffffffffffffffffffffffffffffffffffffff168152602001908152602001600020600101805461117e90611f4d565b80601f01602080910402602001604051908101604052809291908181526020018280546111aa90611f4d565b80156111f75780601f106111cc576101008083540402835291602001916111f7565b820191906000526020600020905b8154815290600101906020018083116111da57829003601f168201915b505050505081526020016040518060400160405280601581526020017f6569676874207374617220646f75207a68692071690000000000000000000000815250815260200161012c815260200161012c8152602001601e8152602001600a8152602001600360003373ffffffffffffffffffffffffffffffffffffffff1673ffffffffffffffffffffffffffffffffffffffff16815260200190815260200160002060070180546112a790611f4d565b80601f01602080910402602001604051908101604052809291908181526020018280546112d390611f4d565b80156113205780601f106112f557610100808354040283529160200191611320565b820191906000526020600020905b81548152906001019060200180831161130357829003601f168201915b505050505081526020016032815260200160328152602001600360003373ffffffffffffffffffffffffffffffffffffffff1673ffffffffffffffffffffffffffffffffffffffff168152602001908152602001600020600a0154815250600360003373ffffffffffffffffffffffffffffffffffffffff1673ffffffffffffffffffffffffffffffffffffffff16815260200190815260200160002060008201518160000190816113d29190612257565b5060208201518160010190816113e89190612257565b5060408201518160020190816113fe9190612257565b50606082015181600301556080820151816004015560a0820151816005015560c0820151816006015560e082015181600701908161143c9190612257565b506101008201518160080155610120820151816009015561014082015181600a01559050506001600260003373ffffffffffffffffffffffffffffffffffffffff1673ffffffffffffffffffffffffffffffffffffffff1681526020019081526020016000206000815481106114b5576114b4611f7e565b5b906000526020600020906004020160030160006101000a81548160ff0219169083151502179055506040518060c00160405280608181526020016123bc60819139905090565b6000604051905090565b600080fd5b600080fd5b600061ffff82169050919050565b6115268161150f565b811461153157600080fd5b50565b6000813590506115438161151d565b92915050565b600080600080600060a0868803121561156557611564611505565b5b600061157388828901611534565b955050602061158488828901611534565b945050604061159588828901611534565b93505060606115a688828901611534565b92505060806115b788828901611534565b9150509295509295909350565b600080fd5b600080fd5b6000601f19601f8301169050919050565b7f4e487b7100000000000000000000000000000000000000000000000000000000600052604160045260246000fd5b611617826115ce565b810181811067ffffffffffffffff82111715611636576116356115df565b5b80604052505050565b60006116496114fb565b9050611655828261160e565b919050565b600067ffffffffffffffff821115611675576116746115df565b5b61167e826115ce565b9050602081019050919050565b82818337600083830152505050565b60006116ad6116a88461165a565b61163f565b9050828152602081018484840111156116c9576116c86115c9565b5b6116d484828561168b565b509392505050565b600082601f8301126116f1576116f06115c4565b5b813561170184826020860161169a565b91505092915050565b6000806040838503121561172157611720611505565b5b600083013567ffffffffffffffff81111561173f5761173e61150a565b5b61174b858286016116dc565b925050602083013567ffffffffffffffff81111561176c5761176b61150a565b5b611778858286016116dc565b9150509250929050565b60008115159050919050565b61179781611782565b82525050565b60006020820190506117b2600083018461178e565b92915050565b600073ffffffffffffffffffffffffffffffffffffffff82169050919050565b60006117e3826117b8565b9050919050565b6117f3816117d8565b81146117fe57600080fd5b50565b600081359050611810816117ea565b92915050565b60006020828403121561182c5761182b611505565b5b600061183a84828501611801565b91505092915050565b600081519050919050565b600082825260208201905092915050565b60005b8381101561187d578082015181840152602081019050611862565b60008484015250505050565b600061189482611843565b61189e818561184e565b93506118ae81856020860161185f565b6118b7816115ce565b840191505092915050565b6000819050919050565b6118d5816118c2565b82525050565b60006101608201905081810360008301526118f6818e611889565b9050818103602083015261190a818d611889565b9050818103604083015261191e818c611889565b905061192d606083018b6118cc565b61193a608083018a6118cc565b61194760a08301896118cc565b61195460c08301886118cc565b81810360e08301526119668187611889565b90506119766101008301866118cc565b6119846101208301856118cc565b6119926101408301846118cc565b9c9b505050505050505050505050565b600060208201905081810360008301526119bc8184611889565b905092915050565b600060a0820190506119d960008301886118cc565b6119e660208301876118cc565b6119f360408301866118cc565b611a0060608301856118cc565b611a0d60808301846118cc565b9695505050505050565b611a20816118c2565b8114611a2b57600080fd5b50565b600081359050611a3d81611a17565b92915050565b60008060408385031215611a5a57611a59611505565b5b6000611a6885828601611801565b9250506020611a7985828601611a2e565b9150509250929050565b60006060820190508181036000830152611a9d8186611889565b9050611aac60208301856118cc565b611ab9604083018461178e565b949350505050565b600060208284031215611ad757611ad6611505565b5b6000611ae584828501611a2e565b91505092915050565b6000604082019050611b03600083018561178e565b611b10602083018461178e565b9392505050565b600060208284031215611b2d57611b2c611505565b5b600082013567ffffffffffffffff811115611b4b57611b4a61150a565b5b611b57848285016116dc565b91505092915050565b6000602082019050611b7560008301846118cc565b92915050565b600081905092915050565b7f676f6c6444726f70456e68616e6365506f74696f6e0000000000000000000000600082015250565b6000611bbc601583611b7b565b9150611bc782611b86565b601582019050919050565b6000611bdd82611baf565b9150819050919050565b7f4e487b7100000000000000000000000000000000000000000000000000000000600052601160045260246000fd5b6000611c21826118c2565b9150611c2c836118c2565b9250828202611c3a816118c2565b91508282048414831517611c5157611c50611be7565b5b5092915050565b7f61747461636b456e68616e6365506f74696f6e00000000000000000000000000600082015250565b6000611c8e601383611b7b565b9150611c9982611c58565b601382019050919050565b6000611caf82611c81565b9150819050919050565b7f726576697665506f74696f6e0000000000000000000000000000000000000000600082015250565b6000611cef600c83611b7b565b9150611cfa82611cb9565b600c82019050919050565b6000611d1082611ce2565b9150819050919050565b7f71695265636f7665727950696c6c000000000000000000000000000000000000600082015250565b6000611d50600e83611b7b565b9150611d5b82611d1a565b600e82019050919050565b6000611d7182611d43565b9150819050919050565b7f6865616c7468506f74696f6e0000000000000000000000000000000000000000600082015250565b6000611db1600c83611b7b565b9150611dbc82611d7b565b600c82019050919050565b6000611dd282611da4565b9150819050919050565b6000611de7826118c2565b9150611df2836118c2565b9250828201905080821115611e0a57611e09611be7565b5b92915050565b7f706c6561736520656974686572207375626d697420636f72726563742063686f60008201527f696365206f7220796f752068617665206e6f7420656e6f676820676f6c640000602082015250565b6000611e6c603e8361184e565b9150611e7782611e10565b604082019050919050565b60006020820190508181036000830152611e9b81611e5f565b9050919050565b6000611ead826118c2565b9150611eb8836118c2565b9250828203905081811115611ed057611ecf611be7565b5b92915050565b6000611ee182611843565b611eeb8185611b7b565b9350611efb81856020860161185f565b80840191505092915050565b6000611f138284611ed6565b915081905092915050565b7f4e487b7100000000000000000000000000000000000000000000000000000000600052602260045260246000fd5b60006002820490506001821680611f6557607f821691505b602082108103611f7857611f77611f1e565b5b50919050565b7f4e487b7100000000000000000000000000000000000000000000000000000000600052603260045260246000fd5b7f796f752073686f756c6420636f6d706c65746520717565737431206669727374600082015250565b6000611fe360208361184e565b9150611fee82611fad565b602082019050919050565b6000602082019050818103600083015261201281611fd6565b9050919050565b7f796f75206861766520616c726561647920636f6d706c6574656420746865207160008201527f7565737400000000000000000000000000000000000000000000000000000000602082015250565b600061207560248361184e565b915061208082612019565b604082019050919050565b600060208201905081810360008301526120a481612068565b9050919050565b60008190508160005260206000209050919050565b60006020601f8301049050919050565b600082821b905092915050565b60006008830261210d7fffffffffffffffffffffffffffffffffffffffffffffffffffffffffffffffff826120d0565b61211786836120d0565b95508019841693508086168417925050509392505050565b6000819050919050565b600061215461214f61214a846118c2565b61212f565b6118c2565b9050919050565b6000819050919050565b61216e83612139565b61218261217a8261215b565b8484546120dd565b825550505050565b600090565b61219761218a565b6121a2818484612165565b505050565b5b818110156121c6576121bb60008261218f565b6001810190506121a8565b5050565b601f82111561220b576121dc816120ab565b6121e5846120c0565b810160208510156121f4578190505b612208612200856120c0565b8301826121a7565b50505b505050565b600082821c905092915050565b600061222e60001984600802612210565b1980831691505092915050565b6000612247838361221d565b9150826002028217905092915050565b61226082611843565b67ffffffffffffffff811115612279576122786115df565b5b6122838254611f4d565b61228e8282856121ca565b600060209050601f8311600181146122c157600084156122af578287015190505b6122b9858261223b565b865550612321565b601f1984166122cf866120ab565b60005b828110156122f7578489015182556001820191506020850194506020810190506122d2565b868310156123145784890151612310601f89168261221d565b8355505b6001600288020188555050505b505050505050565b7f706c656173652063726561746520796f7572206368617261637465722066697260008201527f7374000000000000000000000000000000000000000000000000000000000000602082015250565b600061238560228361184e565b915061239082612329565b604082019050919050565b600060208201905081810360008301526123b481612378565b905091905056fe6d656c65652064616d6167652c6865616c74682c716920616e6420646566616e636520686173206265656e20656e68616e63656420616674657220636f6d706c6574696f6e206f662071756573743220796f752077696c6c2062652061626c6520746f20706172746963697061746520696e2070767020746f75726e616d656e74a2646970667358221220db8a1238d8434be6953f7d4dafdb1d1662de2df15f7eebdc74b111c25ee122c664736f6c6343000814003368747470733a2f2f697066732e696f2f697066732f516d61793376576d6d424a796b635433676e6a776979507361564d6e56746878457a644371736d65657278687a3668747470733a2f2f697066732e696f2f697066732f516d5248724b664a566331446357773578454855746f696b753556584d3461375a386b6561654c63314c4d4b344c68747470733a2f2f697066732e696f2f697066732f516d58534352746f787242504b6754537176504a6b4a42345542364b453566516f77694a4b68574e437177566f5368747470733a2f2f697066732e696f2f697066732f516d587874644d576575777641424d554e7644366e566e545869684e476964527736594c6b384b63436365436f55",
  "devdoc": {
    "kind": "dev",
    "methods": {},
    "version": 1
  },
  "userdoc": {
    "kind": "user",
    "methods": {},
    "version": 1
  },
  "storageLayout": {
    "storage": [
      {
        "astId": 27,
        "contract": "contracts/btthGame.sol:BtthGame",
        "label": "s_requests",
        "offset": 0,
        "slot": "0",
        "type": "t_mapping(t_uint256,t_struct(RequestStatus)22_storage)"
      },
      {
        "astId": 35,
        "contract": "contracts/btthGame.sol:BtthGame",
        "label": "characters_image",
        "offset": 0,
        "slot": "1",
        "type": "t_array(t_string_storage)dyn_storage"
      },
      {
        "astId": 110,
        "contract": "contracts/btthGame.sol:BtthGame",
        "label": "quest",
        "offset": 0,
        "slot": "2",
        "type": "t_mapping(t_address,t_array(t_struct(Quest_Things)104_storage)dyn_storage)"
      },
      {
        "astId": 115,
        "contract": "contracts/btthGame.sol:BtthGame",
        "label": "player",
        "offset": 0,
        "slot": "3",
        "type": "t_mapping(t_address,t_struct(Character)58_storage)"
      },
      {
        "astId": 120,
        "contract": "contracts/btthGame.sol:BtthGame",
        "label": "Inventory",
        "offset": 0,
        "slot": "4",
        "type": "t_mapping(t_address,t_struct(Character_inventory)78_storage)"
      },
      {
        "astId": 124,
        "contract": "contracts/btthGame.sol:BtthGame",
        "label": "materialValue",
        "offset": 0,
        "slot": "5",
        "type": "t_mapping(t_string_memory_ptr,t_uint256)"
      }
    ],
    "types": {
      "t_address": {
        "encoding": "inplace",
        "label": "address",
        "numberOfBytes": "20"
      },
      "t_array(t_string_storage)dyn_storage": {
        "base": "t_string_storage",
        "encoding": "dynamic_array",
        "label": "string[]",
        "numberOfBytes": "32"
      },
      "t_array(t_struct(Quest_Things)104_storage)dyn_storage": {
        "base": "t_struct(Quest_Things)104_storage",
        "encoding": "dynamic_array",
        "label": "struct BtthGame.Quest_Things[]",
        "numberOfBytes": "32"
      },
      "t_array(t_struct(Skill)63_storage)dyn_storage": {
        "base": "t_struct(Skill)63_storage",
        "encoding": "dynamic_array",
        "label": "struct BtthGame.Skill[]",
        "numberOfBytes": "32"
      },
      "t_array(t_struct(npc)93_storage)dyn_storage": {
        "base": "t_struct(npc)93_storage",
        "encoding": "dynamic_array",
        "label": "struct BtthGame.npc[]",
        "numberOfBytes": "32"
      },
      "t_array(t_uint256)dyn_storage": {
        "base": "t_uint256",
        "encoding": "dynamic_array",
        "label": "uint256[]",
        "numberOfBytes": "32"
      },
      "t_bool": {
        "encoding": "inplace",
        "label": "bool",
        "numberOfBytes": "1"
      },
      "t_mapping(t_address,t_array(t_struct(Quest_Things)104_storage)dyn_storage)": {
        "encoding": "mapping",
        "key": "t_address",
        "label": "mapping(address => struct BtthGame.Quest_Things[])",
        "numberOfBytes": "32",
        "value": "t_array(t_struct(Quest_Things)104_storage)dyn_storage"
      },
      "t_mapping(t_address,t_struct(Character)58_storage)": {
        "encoding": "mapping",
        "key": "t_address",
        "label": "mapping(address => struct BtthGame.Character)",
        "numberOfBytes": "32",
        "value": "t_struct(Character)58_storage"
      },
      "t_mapping(t_address,t_struct(Character_inventory)78_storage)": {
        "encoding": "mapping",
        "key": "t_address",
        "label": "mapping(address => struct BtthGame.Character_inventory)",
        "numberOfBytes": "32",
        "value": "t_struct(Character_inventory)78_storage"
      },
      "t_mapping(t_string_memory_ptr,t_uint256)": {
        "encoding": "mapping",
        "key": "t_string_memory_ptr",
        "label": "mapping(string => uint256)",
        "numberOfBytes": "32",
        "value": "t_uint256"
      },
      "t_mapping(t_uint256,t_struct(RequestStatus)22_storage)": {
        "encoding": "mapping",
        "key": "t_uint256",
        "label": "mapping(uint256 => struct BtthGame.RequestStatus)",
        "numberOfBytes": "32",
        "value": "t_struct(RequestStatus)22_storage"
      },
      "t_string_memory_ptr": {
        "encoding": "bytes",
        "label": "string",
        "numberOfBytes": "32"
      },
      "t_string_storage": {
        "encoding": "bytes",
        "label": "string",
        "numberOfBytes": "32"
      },
      "t_struct(Character)58_storage": {
        "encoding": "inplace",
        "label": "struct BtthGame.Character",
        "members": [
          {
            "astId": 37,
            "contract": "contracts/btthGame.sol:BtthGame",
            "label": "name",
            "offset": 0,
            "slot": "0",
            "type": "t_string_storage"
          },
          {
            "astId": 39,
            "contract": "contracts/btthGame.sol:BtthGame",
            "label": "image",
            "offset": 0,
            "slot": "1",
            "type": "t_string_storage"
          },
          {
            "astId": 41,
            "contract": "contracts/btthGame.sol:BtthGame",
            "label": "level",
            "offset": 0,
            "slot": "2",
            "type": "t_string_storage"
          },
          {
            "astId": 43,
            "contract": "contracts/btthGame.sol:BtthGame",
            "label": "maxHealth",
            "offset": 0,
            "slot": "3",
            "type": "t_uint256"
          },
          {
            "astId": 45,
            "contract": "contracts/btthGame.sol:BtthGame",
            "label": "health",
            "offset": 0,
            "slot": "4",
            "type": "t_uint256"
          },
          {
            "astId": 47,
            "contract": "contracts/btthGame.sol:BtthGame",
            "label": "attackDamage",
            "offset": 0,
            "slot": "5",
            "type": "t_uint256"
          },
          {
            "astId": 49,
            "contract": "contracts/btthGame.sol:BtthGame",
            "label": "defense",
            "offset": 0,
            "slot": "6",
            "type": "t_uint256"
          },
          {
            "astId": 51,
            "contract": "contracts/btthGame.sol:BtthGame",
            "label": "weapon",
            "offset": 0,
            "slot": "7",
            "type": "t_string_storage"
          },
          {
            "astId": 53,
            "contract": "contracts/btthGame.sol:BtthGame",
            "label": "qi",
            "offset": 0,
            "slot": "8",
            "type": "t_uint256"
          },
          {
            "astId": 55,
            "contract": "contracts/btthGame.sol:BtthGame",
            "label": "maxQi",
            "offset": 0,
            "slot": "9",
            "type": "t_uint256"
          },
          {
            "astId": 57,
            "contract": "contracts/btthGame.sol:BtthGame",
            "label": "goldCoin",
            "offset": 0,
            "slot": "10",
            "type": "t_uint256"
          }
        ],
        "numberOfBytes": "352"
      },
      "t_struct(Character_inventory)78_storage": {
        "encoding": "inplace",
        "label": "struct BtthGame.Character_inventory",
        "members": [
          {
            "astId": 65,
            "contract": "contracts/btthGame.sol:BtthGame",
            "label": "healthPotion",
            "offset": 0,
            "slot": "0",
            "type": "t_uint256"
          },
          {
            "astId": 67,
            "contract": "contracts/btthGame.sol:BtthGame",
            "label": "qiRecoveryPill",
            "offset": 0,
            "slot": "1",
            "type": "t_uint256"
          },
          {
            "astId": 69,
            "contract": "contracts/btthGame.sol:BtthGame",
            "label": "revivePotion",
            "offset": 0,
            "slot": "2",
            "type": "t_uint256"
          },
          {
            "astId": 71,
            "contract": "contracts/btthGame.sol:BtthGame",
            "label": "attackEnhancePotion",
            "offset": 0,
            "slot": "3",
            "type": "t_uint256"
          },
          {
            "astId": 73,
            "contract": "contracts/btthGame.sol:BtthGame",
            "label": "goldDropEnhancePotion",
            "offset": 0,
            "slot": "4",
            "type": "t_uint256"
          },
          {
            "astId": 77,
            "contract": "contracts/btthGame.sol:BtthGame",
            "label": "skill",
            "offset": 0,
            "slot": "5",
            "type": "t_array(t_struct(Skill)63_storage)dyn_storage"
          }
        ],
        "numberOfBytes": "192"
      },
      "t_struct(Quest_Things)104_storage": {
        "encoding": "inplace",
        "label": "struct BtthGame.Quest_Things",
        "members": [
          {
            "astId": 95,
            "contract": "contracts/btthGame.sol:BtthGame",
            "label": "quest_name",
            "offset": 0,
            "slot": "0",
            "type": "t_string_storage"
          },
          {
            "astId": 97,
            "contract": "contracts/btthGame.sol:BtthGame",
            "label": "characterTokenId",
            "offset": 0,
            "slot": "1",
            "type": "t_uint256"
          },
          {
            "astId": 101,
            "contract": "contracts/btthGame.sol:BtthGame",
            "label": "relatedThings",
            "offset": 0,
            "slot": "2",
            "type": "t_array(t_struct(npc)93_storage)dyn_storage"
          },
          {
            "astId": 103,
            "contract": "contracts/btthGame.sol:BtthGame",
            "label": "isCompleted",
            "offset": 0,
            "slot": "3",
            "type": "t_bool"
          }
        ],
        "numberOfBytes": "128"
      },
      "t_struct(RequestStatus)22_storage": {
        "encoding": "inplace",
        "label": "struct BtthGame.RequestStatus",
        "members": [
          {
            "astId": 16,
            "contract": "contracts/btthGame.sol:BtthGame",
            "label": "fulfilled",
            "offset": 0,
            "slot": "0",
            "type": "t_bool"
          },
          {
            "astId": 18,
            "contract": "contracts/btthGame.sol:BtthGame",
            "label": "exists",
            "offset": 1,
            "slot": "0",
            "type": "t_bool"
          },
          {
            "astId": 21,
            "contract": "contracts/btthGame.sol:BtthGame",
            "label": "randomWords",
            "offset": 0,
            "slot": "1",
            "type": "t_array(t_uint256)dyn_storage"
          }
        ],
        "numberOfBytes": "64"
      },
      "t_struct(Skill)63_storage": {
        "encoding": "inplace",
        "label": "struct BtthGame.Skill",
        "members": [
          {
            "astId": 60,
            "contract": "contracts/btthGame.sol:BtthGame",
            "label": "name",
            "offset": 0,
            "slot": "0",
            "type": "t_string_storage"
          },
          {
            "astId": 62,
            "contract": "contracts/btthGame.sol:BtthGame",
            "label": "Qi_cost",
            "offset": 0,
            "slot": "1",
            "type": "t_uint256"
          }
        ],
        "numberOfBytes": "64"
      },
      "t_struct(npc)93_storage": {
        "encoding": "inplace",
        "label": "struct BtthGame.npc",
        "members": [
          {
            "astId": 80,
            "contract": "contracts/btthGame.sol:BtthGame",
            "label": "name",
            "offset": 0,
            "slot": "0",
            "type": "t_string_storage"
          },
          {
            "astId": 82,
            "contract": "contracts/btthGame.sol:BtthGame",
            "label": "tokenId",
            "offset": 0,
            "slot": "1",
            "type": "t_uint256"
          },
          {
            "astId": 84,
            "contract": "contracts/btthGame.sol:BtthGame",
            "label": "level",
            "offset": 0,
            "slot": "2",
            "type": "t_string_storage"
          },
          {
            "astId": 86,
            "contract": "contracts/btthGame.sol:BtthGame",
            "label": "maxHealth",
            "offset": 0,
            "slot": "3",
            "type": "t_uint256"
          },
          {
            "astId": 88,
            "contract": "contracts/btthGame.sol:BtthGame",
            "label": "attackDamage",
            "offset": 0,
            "slot": "4",
            "type": "t_uint256"
          },
          {
            "astId": 90,
            "contract": "contracts/btthGame.sol:BtthGame",
            "label": "health",
            "offset": 0,
            "slot": "5",
            "type": "t_uint256"
          },
          {
            "astId": 92,
            "contract": "contracts/btthGame.sol:BtthGame",
            "label": "isDead",
            "offset": 0,
            "slot": "6",
            "type": "t_bool"
          }
        ],
        "numberOfBytes": "224"
      },
      "t_uint256": {
        "encoding": "inplace",
        "label": "uint256",
        "numberOfBytes": "32"
      }
    }
  }
}