{
  "address": "0x27B78ea472CE5AA3ac24d40770a9152C4761Aa92",
  "abi": [
    {
      "inputs": [
        {
          "internalType": "uint256",
          "name": "subscriptionId",
          "type": "uint256"
        }
      ],
      "stateMutability": "nonpayable",
      "type": "constructor"
    },
    {
      "inputs": [
        {
          "internalType": "address",
          "name": "have",
          "type": "address"
        },
        {
          "internalType": "address",
          "name": "want",
          "type": "address"
        }
      ],
      "name": "OnlyCoordinatorCanFulfill",
      "type": "error"
    },
    {
      "inputs": [
        {
          "internalType": "address",
          "name": "have",
          "type": "address"
        },
        {
          "internalType": "address",
          "name": "owner",
          "type": "address"
        },
        {
          "internalType": "address",
          "name": "coordinator",
          "type": "address"
        }
      ],
      "name": "OnlyOwnerOrCoordinator",
      "type": "error"
    },
    {
      "inputs": [],
      "name": "ZeroAddress",
      "type": "error"
    },
    {
      "anonymous": false,
      "inputs": [
        {
          "indexed": false,
          "internalType": "address",
          "name": "vrfCoordinator",
          "type": "address"
        }
      ],
      "name": "CoordinatorSet",
      "type": "event"
    },
    {
      "anonymous": false,
      "inputs": [
        {
          "indexed": true,
          "internalType": "address",
          "name": "from",
          "type": "address"
        },
        {
          "indexed": true,
          "internalType": "address",
          "name": "to",
          "type": "address"
        }
      ],
      "name": "OwnershipTransferRequested",
      "type": "event"
    },
    {
      "anonymous": false,
      "inputs": [
        {
          "indexed": true,
          "internalType": "address",
          "name": "from",
          "type": "address"
        },
        {
          "indexed": true,
          "internalType": "address",
          "name": "to",
          "type": "address"
        }
      ],
      "name": "OwnershipTransferred",
      "type": "event"
    },
    {
      "inputs": [],
      "name": "acceptOwnership",
      "outputs": [],
      "stateMutability": "nonpayable",
      "type": "function"
    },
    {
      "inputs": [
        {
          "internalType": "address",
          "name": "",
          "type": "address"
        }
      ],
      "name": "loginMap",
      "outputs": [
        {
          "internalType": "uint256",
          "name": "s_lastTimestamp",
          "type": "uint256"
        },
        {
          "internalType": "bool",
          "name": "used",
          "type": "bool"
        },
        {
          "internalType": "uint256",
          "name": "s_lastRequestId",
          "type": "uint256"
        },
        {
          "internalType": "uint256",
          "name": "s_lastResulted",
          "type": "uint256"
        }
      ],
      "stateMutability": "view",
      "type": "function"
    },
    {
      "inputs": [],
      "name": "owner",
      "outputs": [
        {
          "internalType": "address",
          "name": "",
          "type": "address"
        }
      ],
      "stateMutability": "view",
      "type": "function"
    },
    {
      "inputs": [
        {
          "internalType": "uint256",
          "name": "requestId",
          "type": "uint256"
        },
        {
          "internalType": "uint256[]",
          "name": "randomWords",
          "type": "uint256[]"
        }
      ],
      "name": "rawFulfillRandomWords",
      "outputs": [],
      "stateMutability": "nonpayable",
      "type": "function"
    },
    {
      "inputs": [
        {
          "internalType": "uint256",
          "name": "",
          "type": "uint256"
        }
      ],
      "name": "requestToAddresslogin",
      "outputs": [
        {
          "internalType": "address",
          "name": "",
          "type": "address"
        }
      ],
      "stateMutability": "view",
      "type": "function"
    },
    {
      "inputs": [],
      "name": "returnNumber",
      "outputs": [
        {
          "internalType": "uint256",
          "name": "",
          "type": "uint256"
        }
      ],
      "stateMutability": "view",
      "type": "function"
    },
    {
      "inputs": [
        {
          "internalType": "uint256",
          "name": "",
          "type": "uint256"
        }
      ],
      "name": "s_requests",
      "outputs": [
        {
          "internalType": "bool",
          "name": "fulfilled",
          "type": "bool"
        },
        {
          "internalType": "bool",
          "name": "exists",
          "type": "bool"
        },
        {
          "internalType": "uint256",
          "name": "randomWords",
          "type": "uint256"
        }
      ],
      "stateMutability": "view",
      "type": "function"
    },
    {
      "inputs": [],
      "name": "s_subscriptionId",
      "outputs": [
        {
          "internalType": "uint256",
          "name": "",
          "type": "uint256"
        }
      ],
      "stateMutability": "view",
      "type": "function"
    },
    {
      "inputs": [],
      "name": "s_vrfCoordinator",
      "outputs": [
        {
          "internalType": "contract IVRFCoordinatorV2Plus",
          "name": "",
          "type": "address"
        }
      ],
      "stateMutability": "view",
      "type": "function"
    },
    {
      "inputs": [
        {
          "internalType": "address",
          "name": "_vrfCoordinator",
          "type": "address"
        }
      ],
      "name": "setCoordinator",
      "outputs": [],
      "stateMutability": "nonpayable",
      "type": "function"
    },
    {
      "inputs": [],
      "name": "startLogin",
      "outputs": [
        {
          "internalType": "uint256",
          "name": "requestId",
          "type": "uint256"
        }
      ],
      "stateMutability": "nonpayable",
      "type": "function"
    },
    {
      "inputs": [
        {
          "internalType": "address",
          "name": "to",
          "type": "address"
        }
      ],
      "name": "transferOwnership",
      "outputs": [],
      "stateMutability": "nonpayable",
      "type": "function"
    },
    {
      "inputs": [],
      "name": "updateStatus",
      "outputs": [],
      "stateMutability": "nonpayable",
      "type": "function"
    }
  ],
  "transactionHash": "0x0ec6380f8370d1402a13f0c1bcfa2b2d5fe09162f9c499e78df0705077c391d3",
  "args": [
    "35668373328981116203015194386587892678032541850093810875015398855036987061579"
  ],
  "numDeployments": 1,
  "solcInputHash": "00f0230d52af69828fac7e9585dff72d",
  "bytecode": "0x608060405273343300b5d84d444b2adc9116fef1bed02be49cf2600360006101000a81548173ffffffffffffffffffffffffffffffffffffffff021916908373ffffffffffffffffffffffffffffffffffffffff1602179055507f816bedba8a50b294e5cbd47842baf240c2385f2eaf719edbd4f250a137a8c89960001b600455622625a0600560006101000a81548163ffffffff021916908363ffffffff1602179055506003600560046101000a81548161ffff021916908361ffff1602179055506001600560066101000a81548163ffffffff021916908363ffffffff160217905550348015620000f157600080fd5b5060405162001f6b38038062001f6b83398181016040528101906200011791906200045f565b600360009054906101000a900473ffffffffffffffffffffffffffffffffffffffff16338060008073ffffffffffffffffffffffffffffffffffffffff168273ffffffffffffffffffffffffffffffffffffffff1603620001af576040517f08c379a0000000000000000000000000000000000000000000000000000000008152600401620001a690620004f2565b60405180910390fd5b816000806101000a81548173ffffffffffffffffffffffffffffffffffffffff021916908373ffffffffffffffffffffffffffffffffffffffff160217905550600073ffffffffffffffffffffffffffffffffffffffff168173ffffffffffffffffffffffffffffffffffffffff161462000236576200023581620002f060201b60201c565b5b505050600073ffffffffffffffffffffffffffffffffffffffff168173ffffffffffffffffffffffffffffffffffffffff1603620002a0576040517fd92e233d00000000000000000000000000000000000000000000000000000000815260040160405180910390fd5b80600260006101000a81548173ffffffffffffffffffffffffffffffffffffffff021916908373ffffffffffffffffffffffffffffffffffffffff16021790555050806006819055505062000586565b3373ffffffffffffffffffffffffffffffffffffffff168173ffffffffffffffffffffffffffffffffffffffff160362000361576040517f08c379a0000000000000000000000000000000000000000000000000000000008152600401620003589062000564565b60405180910390fd5b80600160006101000a81548173ffffffffffffffffffffffffffffffffffffffff021916908373ffffffffffffffffffffffffffffffffffffffff1602179055508073ffffffffffffffffffffffffffffffffffffffff1660008054906101000a900473ffffffffffffffffffffffffffffffffffffffff1673ffffffffffffffffffffffffffffffffffffffff167fed8889f560326eb138920d842192f0eb3dd22b4f139c87a2c57538e05bae127860405160405180910390a350565b600080fd5b6000819050919050565b620004398162000424565b81146200044557600080fd5b50565b60008151905062000459816200042e565b92915050565b6000602082840312156200047857620004776200041f565b5b6000620004888482850162000448565b91505092915050565b600082825260208201905092915050565b7f43616e6e6f7420736574206f776e657220746f207a65726f0000000000000000600082015250565b6000620004da60188362000491565b9150620004e782620004a2565b602082019050919050565b600060208201905081810360008301526200050d81620004cb565b9050919050565b7f43616e6e6f74207472616e7366657220746f2073656c66000000000000000000600082015250565b60006200054c60178362000491565b9150620005598262000514565b602082019050919050565b600060208201905081810360008301526200057f816200053d565b9050919050565b6119d580620005966000396000f3fe608060405234801561001057600080fd5b50600436106100cf5760003560e01c806379ba50971161008c5780638ea98117116100665780638ea98117146101df5780639eccacf6146101fb578063a168fa8914610219578063f2fde38b1461024b576100cf565b806379ba5097146101995780638ac00021146101a35780638da5cb5b146101c1576100cf565b806310dd86e1146100d45780631fe543e3146101075780633450bd6a146101235780635146fd29146101415780635f60f4851461015f57806370b2591a14610169575b600080fd5b6100ee60048036038101906100e991906110d3565b610267565b6040516100fe9493929190611134565b60405180910390f35b610121600480360381019061011c919061120a565b6102a4565b005b61012b61036a565b604051610138919061126a565b60405180910390f35b6101496103b4565b604051610156919061126a565b60405180910390f35b610167610629565b005b610183600480360381019061017e9190611285565b6107c8565b60405161019091906112c1565b60405180910390f35b6101a16107fb565b005b6101ab610990565b6040516101b8919061126a565b60405180910390f35b6101c9610996565b6040516101d691906112c1565b60405180910390f35b6101f960048036038101906101f491906110d3565b6109bf565b005b610203610ba0565b604051610210919061133b565b60405180910390f35b610233600480360381019061022e9190611285565b610bc6565b60405161024293929190611356565b60405180910390f35b610265600480360381019061026091906110d3565b610c0a565b005b60076020528060005260406000206000915090508060000154908060010160009054906101000a900460ff16908060020154908060030154905084565b600260009054906101000a900473ffffffffffffffffffffffffffffffffffffffff1673ffffffffffffffffffffffffffffffffffffffff163373ffffffffffffffffffffffffffffffffffffffff161461035a5733600260009054906101000a900473ffffffffffffffffffffffffffffffffffffffff166040517f1cf993f400000000000000000000000000000000000000000000000000000000815260040161035192919061138d565b60405180910390fd5b610365838383610c1e565b505050565b6000600760003373ffffffffffffffffffffffffffffffffffffffff1673ffffffffffffffffffffffffffffffffffffffff16815260200190815260200160002060030154905090565b600062015180600760003373ffffffffffffffffffffffffffffffffffffffff1673ffffffffffffffffffffffffffffffffffffffff168152602001908152602001600020600001544261040891906113e5565b1015610449576040517f08c379a000000000000000000000000000000000000000000000000000000000815260040161044090611476565b60405180910390fd5b600260009054906101000a900473ffffffffffffffffffffffffffffffffffffffff1673ffffffffffffffffffffffffffffffffffffffff16639b1c385e6040518060c0016040528060045481526020016006548152602001600560049054906101000a900461ffff1661ffff168152602001600560009054906101000a900463ffffffff1663ffffffff168152602001600560069054906101000a900463ffffffff1663ffffffff168152602001610512604051806020016040528060001515815250610e17565b8152506040518263ffffffff1660e01b81526004016105319190611613565b6020604051808303816000875af1158015610550573d6000803e3d6000fd5b505050506040513d601f19601f82011682018060405250810190610574919061164a565b905060016009600083815260200190815260200160002060000160016101000a81548160ff02191690831515021790555060006009600083815260200190815260200160002060000160006101000a81548160ff021916908315150217905550336008600083815260200190815260200160002060006101000a81548173ffffffffffffffffffffffffffffffffffffffff021916908373ffffffffffffffffffffffffffffffffffffffff16021790555090565b60001515600760003373ffffffffffffffffffffffffffffffffffffffff1673ffffffffffffffffffffffffffffffffffffffff16815260200190815260200160002060010160009054906101000a900460ff161515146106bf576040517f08c379a00000000000000000000000000000000000000000000000000000000081526004016106b6906116c3565b60405180910390fd5b6001151560096000600760003373ffffffffffffffffffffffffffffffffffffffff1673ffffffffffffffffffffffffffffffffffffffff16815260200190815260200160002060020154815260200190815260200160002060000160009054906101000a900460ff1615151461076b576040517f08c379a00000000000000000000000000000000000000000000000000000000081526004016107629061172f565b60405180910390fd5b6001600760003373ffffffffffffffffffffffffffffffffffffffff1673ffffffffffffffffffffffffffffffffffffffff16815260200190815260200160002060010160006101000a81548160ff021916908315150217905550565b60086020528060005260406000206000915054906101000a900473ffffffffffffffffffffffffffffffffffffffff1681565b600160009054906101000a900473ffffffffffffffffffffffffffffffffffffffff1673ffffffffffffffffffffffffffffffffffffffff163373ffffffffffffffffffffffffffffffffffffffff161461088b576040517f08c379a00000000000000000000000000000000000000000000000000000000081526004016108829061179b565b60405180910390fd5b60008060009054906101000a900473ffffffffffffffffffffffffffffffffffffffff169050336000806101000a81548173ffffffffffffffffffffffffffffffffffffffff021916908373ffffffffffffffffffffffffffffffffffffffff1602179055506000600160006101000a81548173ffffffffffffffffffffffffffffffffffffffff021916908373ffffffffffffffffffffffffffffffffffffffff1602179055503373ffffffffffffffffffffffffffffffffffffffff168173ffffffffffffffffffffffffffffffffffffffff167f8be0079c531659141344cd1fd0a4f28419497f9722a3daafe3b4186f6b6457e060405160405180910390a350565b60065481565b60008060009054906101000a900473ffffffffffffffffffffffffffffffffffffffff16905090565b6109c7610996565b73ffffffffffffffffffffffffffffffffffffffff163373ffffffffffffffffffffffffffffffffffffffff1614158015610a505750600260009054906101000a900473ffffffffffffffffffffffffffffffffffffffff1673ffffffffffffffffffffffffffffffffffffffff163373ffffffffffffffffffffffffffffffffffffffff1614155b15610abf5733610a5e610996565b600260009054906101000a900473ffffffffffffffffffffffffffffffffffffffff166040517f061db9c1000000000000000000000000000000000000000000000000000000008152600401610ab6939291906117bb565b60405180910390fd5b600073ffffffffffffffffffffffffffffffffffffffff168173ffffffffffffffffffffffffffffffffffffffff1603610b25576040517fd92e233d00000000000000000000000000000000000000000000000000000000815260040160405180910390fd5b80600260006101000a81548173ffffffffffffffffffffffffffffffffffffffff021916908373ffffffffffffffffffffffffffffffffffffffff1602179055507fd1a6a14209a385a964d036e404cb5cfb71f4000cdb03c9366292430787261be681604051610b9591906112c1565b60405180910390a150565b600260009054906101000a900473ffffffffffffffffffffffffffffffffffffffff1681565b60096020528060005260406000206000915090508060000160009054906101000a900460ff16908060000160019054906101000a900460ff16908060010154905083565b610c12610eaf565b610c1b81610f3f565b50565b60006008600085815260200190815260200160002060009054906101000a900473ffffffffffffffffffffffffffffffffffffffff1690506000600760008373ffffffffffffffffffffffffffffffffffffffff1673ffffffffffffffffffffffffffffffffffffffff16815260200190815260200160002060010160006101000a81548160ff02191690831515021790555042600760008373ffffffffffffffffffffffffffffffffffffffff1673ffffffffffffffffffffffffffffffffffffffff1681526020019081526020016000206000018190555083600760008373ffffffffffffffffffffffffffffffffffffffff1673ffffffffffffffffffffffffffffffffffffffff168152602001908152602001600020600201819055506101f483836000818110610d5657610d556117f2565b5b90506020020135610d679190611850565b600760008373ffffffffffffffffffffffffffffffffffffffff1673ffffffffffffffffffffffffffffffffffffffff1681526020019081526020016000206003018190555060016009600086815260200190815260200160002060000160006101000a81548160ff02191690831515021790555082826000818110610df057610def6117f2565b5b90506020020135600960008681526020019081526020016000206001018190555050505050565b60607f92fd13387c7fe7befbc38d303d6468778fb9731bc4583f17d92989c6fcfdeaaa82604051602401610e4b91906118ac565b604051602081830303815290604052907bffffffffffffffffffffffffffffffffffffffffffffffffffffffff19166020820180517bffffffffffffffffffffffffffffffffffffffffffffffffffffffff83818316178352505050509050919050565b60008054906101000a900473ffffffffffffffffffffffffffffffffffffffff1673ffffffffffffffffffffffffffffffffffffffff163373ffffffffffffffffffffffffffffffffffffffff1614610f3d576040517f08c379a0000000000000000000000000000000000000000000000000000000008152600401610f3490611913565b60405180910390fd5b565b3373ffffffffffffffffffffffffffffffffffffffff168173ffffffffffffffffffffffffffffffffffffffff1603610fad576040517f08c379a0000000000000000000000000000000000000000000000000000000008152600401610fa49061197f565b60405180910390fd5b80600160006101000a81548173ffffffffffffffffffffffffffffffffffffffff021916908373ffffffffffffffffffffffffffffffffffffffff1602179055508073ffffffffffffffffffffffffffffffffffffffff1660008054906101000a900473ffffffffffffffffffffffffffffffffffffffff1673ffffffffffffffffffffffffffffffffffffffff167fed8889f560326eb138920d842192f0eb3dd22b4f139c87a2c57538e05bae127860405160405180910390a350565b600080fd5b600080fd5b600073ffffffffffffffffffffffffffffffffffffffff82169050919050565b60006110a082611075565b9050919050565b6110b081611095565b81146110bb57600080fd5b50565b6000813590506110cd816110a7565b92915050565b6000602082840312156110e9576110e861106b565b5b60006110f7848285016110be565b91505092915050565b6000819050919050565b61111381611100565b82525050565b60008115159050919050565b61112e81611119565b82525050565b6000608082019050611149600083018761110a565b6111566020830186611125565b611163604083018561110a565b611170606083018461110a565b95945050505050565b61118281611100565b811461118d57600080fd5b50565b60008135905061119f81611179565b92915050565b600080fd5b600080fd5b600080fd5b60008083601f8401126111ca576111c96111a5565b5b8235905067ffffffffffffffff8111156111e7576111e66111aa565b5b602083019150836020820283011115611203576112026111af565b5b9250929050565b6000806000604084860312156112235761122261106b565b5b600061123186828701611190565b935050602084013567ffffffffffffffff81111561125257611251611070565b5b61125e868287016111b4565b92509250509250925092565b600060208201905061127f600083018461110a565b92915050565b60006020828403121561129b5761129a61106b565b5b60006112a984828501611190565b91505092915050565b6112bb81611095565b82525050565b60006020820190506112d660008301846112b2565b92915050565b6000819050919050565b60006113016112fc6112f784611075565b6112dc565b611075565b9050919050565b6000611313826112e6565b9050919050565b600061132582611308565b9050919050565b6113358161131a565b82525050565b6000602082019050611350600083018461132c565b92915050565b600060608201905061136b6000830186611125565b6113786020830185611125565b611385604083018461110a565b949350505050565b60006040820190506113a260008301856112b2565b6113af60208301846112b2565b9392505050565b7f4e487b7100000000000000000000000000000000000000000000000000000000600052601160045260246000fd5b60006113f082611100565b91506113fb83611100565b9250828203905081811115611413576114126113b6565b5b92915050565b600082825260208201905092915050565b7f6c6f67696e206c61746572000000000000000000000000000000000000000000600082015250565b6000611460600b83611419565b915061146b8261142a565b602082019050919050565b6000602082019050818103600083015261148f81611453565b9050919050565b6000819050919050565b6114a981611496565b82525050565b6114b881611100565b82525050565b600061ffff82169050919050565b6114d5816114be565b82525050565b600063ffffffff82169050919050565b6114f4816114db565b82525050565b600081519050919050565b600082825260208201905092915050565b60005b83811015611534578082015181840152602081019050611519565b60008484015250505050565b6000601f19601f8301169050919050565b600061155c826114fa565b6115668185611505565b9350611576818560208601611516565b61157f81611540565b840191505092915050565b600060c0830160008301516115a260008601826114a0565b5060208301516115b560208601826114af565b5060408301516115c860408601826114cc565b5060608301516115db60608601826114eb565b5060808301516115ee60808601826114eb565b5060a083015184820360a08601526116068282611551565b9150508091505092915050565b6000602082019050818103600083015261162d818461158a565b905092915050565b60008151905061164481611179565b92915050565b6000602082840312156116605761165f61106b565b5b600061166e84828501611635565b91505092915050565b7f6661696c65640000000000000000000000000000000000000000000000000000600082015250565b60006116ad600683611419565b91506116b882611677565b602082019050919050565b600060208201905081810360008301526116dc816116a0565b9050919050565b7f6e6f7420617661696c61626c6500000000000000000000000000000000000000600082015250565b6000611719600d83611419565b9150611724826116e3565b602082019050919050565b600060208201905081810360008301526117488161170c565b9050919050565b7f4d7573742062652070726f706f736564206f776e657200000000000000000000600082015250565b6000611785601683611419565b91506117908261174f565b602082019050919050565b600060208201905081810360008301526117b481611778565b9050919050565b60006060820190506117d060008301866112b2565b6117dd60208301856112b2565b6117ea60408301846112b2565b949350505050565b7f4e487b7100000000000000000000000000000000000000000000000000000000600052603260045260246000fd5b7f4e487b7100000000000000000000000000000000000000000000000000000000600052601260045260246000fd5b600061185b82611100565b915061186683611100565b92508261187657611875611821565b5b828206905092915050565b61188a81611119565b82525050565b6020820160008201516118a66000850182611881565b50505050565b60006020820190506118c16000830184611890565b92915050565b7f4f6e6c792063616c6c61626c65206279206f776e657200000000000000000000600082015250565b60006118fd601683611419565b9150611908826118c7565b602082019050919050565b6000602082019050818103600083015261192c816118f0565b9050919050565b7f43616e6e6f74207472616e7366657220746f2073656c66000000000000000000600082015250565b6000611969601783611419565b915061197482611933565b602082019050919050565b600060208201905081810360008301526119988161195c565b905091905056fea26469706673582212200d49bf6ce15c21eec63c70c2eda17704cf40a0959de6ea9e12ae173497f0760364736f6c63430008140033",
  "devdoc": {
    "kind": "dev",
    "methods": {},
    "version": 1
  },
  "userdoc": {
    "kind": "user",
    "methods": {
      "acceptOwnership()": {
        "notice": "Allows an ownership transfer to be completed by the recipient."
      },
      "owner()": {
        "notice": "Get the current owner"
      },
      "setCoordinator(address)": {
        "notice": "Sets the VRF Coordinator addressThis method should only be callable by the coordinator or contract owner"
      },
      "transferOwnership(address)": {
        "notice": "Allows an owner to begin transferring ownership to a new address."
      }
    },
    "version": 1
  },
  "storageLayout": {
    "storage": [
      {
        "astId": 29,
        "contract": "contracts/loginManagement.sol:loginManagement",
        "label": "s_owner",
        "offset": 0,
        "slot": "0",
        "type": "t_address"
      },
      {
        "astId": 31,
        "contract": "contracts/loginManagement.sol:loginManagement",
        "label": "s_pendingOwner",
        "offset": 0,
        "slot": "1",
        "type": "t_address"
      },
      {
        "astId": 231,
        "contract": "contracts/loginManagement.sol:loginManagement",
        "label": "s_vrfCoordinator",
        "offset": 0,
        "slot": "2",
        "type": "t_contract(IVRFCoordinatorV2Plus)380"
      },
      {
        "astId": 1208,
        "contract": "contracts/loginManagement.sol:loginManagement",
        "label": "vrfCoordinator",
        "offset": 0,
        "slot": "3",
        "type": "t_address"
      },
      {
        "astId": 1211,
        "contract": "contracts/loginManagement.sol:loginManagement",
        "label": "keyHash",
        "offset": 0,
        "slot": "4",
        "type": "t_bytes32"
      },
      {
        "astId": 1214,
        "contract": "contracts/loginManagement.sol:loginManagement",
        "label": "callbackGasLimit",
        "offset": 0,
        "slot": "5",
        "type": "t_uint32"
      },
      {
        "astId": 1217,
        "contract": "contracts/loginManagement.sol:loginManagement",
        "label": "requestConfirmations",
        "offset": 4,
        "slot": "5",
        "type": "t_uint16"
      },
      {
        "astId": 1220,
        "contract": "contracts/loginManagement.sol:loginManagement",
        "label": "numWords",
        "offset": 6,
        "slot": "5",
        "type": "t_uint32"
      },
      {
        "astId": 1222,
        "contract": "contracts/loginManagement.sol:loginManagement",
        "label": "s_subscriptionId",
        "offset": 0,
        "slot": "6",
        "type": "t_uint256"
      },
      {
        "astId": 1256,
        "contract": "contracts/loginManagement.sol:loginManagement",
        "label": "loginMap",
        "offset": 0,
        "slot": "7",
        "type": "t_mapping(t_address,t_struct(login)1244_storage)"
      },
      {
        "astId": 1260,
        "contract": "contracts/loginManagement.sol:loginManagement",
        "label": "requestToAddresslogin",
        "offset": 0,
        "slot": "8",
        "type": "t_mapping(t_uint256,t_address)"
      },
      {
        "astId": 1265,
        "contract": "contracts/loginManagement.sol:loginManagement",
        "label": "s_requests",
        "offset": 0,
        "slot": "9",
        "type": "t_mapping(t_uint256,t_struct(RequestStatus)1251_storage)"
      }
    ],
    "types": {
      "t_address": {
        "encoding": "inplace",
        "label": "address",
        "numberOfBytes": "20"
      },
      "t_bool": {
        "encoding": "inplace",
        "label": "bool",
        "numberOfBytes": "1"
      },
      "t_bytes32": {
        "encoding": "inplace",
        "label": "bytes32",
        "numberOfBytes": "32"
      },
      "t_contract(IVRFCoordinatorV2Plus)380": {
        "encoding": "inplace",
        "label": "contract IVRFCoordinatorV2Plus",
        "numberOfBytes": "20"
      },
      "t_mapping(t_address,t_struct(login)1244_storage)": {
        "encoding": "mapping",
        "key": "t_address",
        "label": "mapping(address => struct loginManagement.login)",
        "numberOfBytes": "32",
        "value": "t_struct(login)1244_storage"
      },
      "t_mapping(t_uint256,t_address)": {
        "encoding": "mapping",
        "key": "t_uint256",
        "label": "mapping(uint256 => address)",
        "numberOfBytes": "32",
        "value": "t_address"
      },
      "t_mapping(t_uint256,t_struct(RequestStatus)1251_storage)": {
        "encoding": "mapping",
        "key": "t_uint256",
        "label": "mapping(uint256 => struct loginManagement.RequestStatus)",
        "numberOfBytes": "32",
        "value": "t_struct(RequestStatus)1251_storage"
      },
      "t_struct(RequestStatus)1251_storage": {
        "encoding": "inplace",
        "label": "struct loginManagement.RequestStatus",
        "members": [
          {
            "astId": 1246,
            "contract": "contracts/loginManagement.sol:loginManagement",
            "label": "fulfilled",
            "offset": 0,
            "slot": "0",
            "type": "t_bool"
          },
          {
            "astId": 1248,
            "contract": "contracts/loginManagement.sol:loginManagement",
            "label": "exists",
            "offset": 1,
            "slot": "0",
            "type": "t_bool"
          },
          {
            "astId": 1250,
            "contract": "contracts/loginManagement.sol:loginManagement",
            "label": "randomWords",
            "offset": 0,
            "slot": "1",
            "type": "t_uint256"
          }
        ],
        "numberOfBytes": "64"
      },
      "t_struct(login)1244_storage": {
        "encoding": "inplace",
        "label": "struct loginManagement.login",
        "members": [
          {
            "astId": 1237,
            "contract": "contracts/loginManagement.sol:loginManagement",
            "label": "s_lastTimestamp",
            "offset": 0,
            "slot": "0",
            "type": "t_uint256"
          },
          {
            "astId": 1239,
            "contract": "contracts/loginManagement.sol:loginManagement",
            "label": "used",
            "offset": 0,
            "slot": "1",
            "type": "t_bool"
          },
          {
            "astId": 1241,
            "contract": "contracts/loginManagement.sol:loginManagement",
            "label": "s_lastRequestId",
            "offset": 0,
            "slot": "2",
            "type": "t_uint256"
          },
          {
            "astId": 1243,
            "contract": "contracts/loginManagement.sol:loginManagement",
            "label": "s_lastResulted",
            "offset": 0,
            "slot": "3",
            "type": "t_uint256"
          }
        ],
        "numberOfBytes": "128"
      },
      "t_uint16": {
        "encoding": "inplace",
        "label": "uint16",
        "numberOfBytes": "2"
      },
      "t_uint256": {
        "encoding": "inplace",
        "label": "uint256",
        "numberOfBytes": "32"
      },
      "t_uint32": {
        "encoding": "inplace",
        "label": "uint32",
        "numberOfBytes": "4"
      }
    }
  }
}