{
  "address": "0x3ED53A326A319e83631BD23Ff210305E60Fb47A9",
  "abi": [
    {
      "inputs": [
        {
          "internalType": "uint256",
          "name": "Index",
          "type": "uint256"
        }
      ],
      "name": "challengAccept",
      "outputs": [],
      "stateMutability": "nonpayable",
      "type": "function"
    },
    {
      "inputs": [
        {
          "internalType": "address",
          "name": "",
          "type": "address"
        },
        {
          "internalType": "uint256",
          "name": "",
          "type": "uint256"
        }
      ],
      "name": "challengeList",
      "outputs": [
        {
          "internalType": "address",
          "name": "challenger",
          "type": "address"
        }
      ],
      "stateMutability": "view",
      "type": "function"
    },
    {
      "inputs": [
        {
          "internalType": "address",
          "name": "",
          "type": "address"
        }
      ],
      "name": "matchInfoReCeipt",
      "outputs": [
        {
          "internalType": "bool",
          "name": "match_goingOn",
          "type": "bool"
        },
        {
          "internalType": "uint256",
          "name": "s_lastTimeStamp",
          "type": "uint256"
        },
        {
          "internalType": "bool",
          "name": "s_isLastDefeated",
          "type": "bool"
        }
      ],
      "stateMutability": "view",
      "type": "function"
    },
    {
      "inputs": [
        {
          "internalType": "address",
          "name": "",
          "type": "address"
        }
      ],
      "name": "prestigeMap",
      "outputs": [
        {
          "internalType": "uint256",
          "name": "points",
          "type": "uint256"
        },
        {
          "internalType": "uint256",
          "name": "win",
          "type": "uint256"
        },
        {
          "internalType": "uint256",
          "name": "loss",
          "type": "uint256"
        }
      ],
      "stateMutability": "view",
      "type": "function"
    },
    {
      "inputs": [
        {
          "internalType": "address",
          "name": "opponent",
          "type": "address"
        }
      ],
      "name": "ragister",
      "outputs": [],
      "stateMutability": "nonpayable",
      "type": "function"
    },
    {
      "inputs": [],
      "name": "retrieveChallengeList",
      "outputs": [
        {
          "components": [
            {
              "internalType": "address",
              "name": "challenger",
              "type": "address"
            }
          ],
          "internalType": "struct pvp.challenged[]",
          "name": "",
          "type": "tuple[]"
        }
      ],
      "stateMutability": "view",
      "type": "function"
    },
    {
      "inputs": [],
      "name": "retrieveIsStarted",
      "outputs": [
        {
          "components": [
            {
              "internalType": "bool",
              "name": "isPvPactive",
              "type": "bool"
            }
          ],
          "internalType": "struct pvp.initiatePvP",
          "name": "",
          "type": "tuple"
        }
      ],
      "stateMutability": "view",
      "type": "function"
    },
    {
      "inputs": [
        {
          "internalType": "address",
          "name": "to",
          "type": "address"
        }
      ],
      "name": "retrieveMatchInfoReceipt",
      "outputs": [
        {
          "components": [
            {
              "internalType": "bool",
              "name": "match_goingOn",
              "type": "bool"
            },
            {
              "internalType": "uint256",
              "name": "s_lastTimeStamp",
              "type": "uint256"
            },
            {
              "internalType": "bool",
              "name": "s_isLastDefeated",
              "type": "bool"
            }
          ],
          "internalType": "struct pvp.matchInfo",
          "name": "",
          "type": "tuple"
        }
      ],
      "stateMutability": "view",
      "type": "function"
    },
    {
      "inputs": [
        {
          "internalType": "address",
          "name": "to",
          "type": "address"
        }
      ],
      "name": "retrievePrestigePoints",
      "outputs": [
        {
          "components": [
            {
              "internalType": "uint256",
              "name": "points",
              "type": "uint256"
            },
            {
              "internalType": "uint256",
              "name": "win",
              "type": "uint256"
            },
            {
              "internalType": "uint256",
              "name": "loss",
              "type": "uint256"
            }
          ],
          "internalType": "struct pvp.prestigePoints",
          "name": "",
          "type": "tuple"
        }
      ],
      "stateMutability": "view",
      "type": "function"
    },
    {
      "inputs": [],
      "name": "retrieveStamps",
      "outputs": [
        {
          "internalType": "uint256",
          "name": "",
          "type": "uint256"
        }
      ],
      "stateMutability": "view",
      "type": "function"
    },
    {
      "inputs": [],
      "name": "startPvP",
      "outputs": [],
      "stateMutability": "nonpayable",
      "type": "function"
    },
    {
      "inputs": [
        {
          "internalType": "address",
          "name": "",
          "type": "address"
        }
      ],
      "name": "startpvp",
      "outputs": [
        {
          "internalType": "bool",
          "name": "isPvPactive",
          "type": "bool"
        }
      ],
      "stateMutability": "view",
      "type": "function"
    },
    {
      "inputs": [
        {
          "internalType": "address",
          "name": "winner",
          "type": "address"
        },
        {
          "internalType": "address",
          "name": "looser",
          "type": "address"
        }
      ],
      "name": "updateStatusPlayer",
      "outputs": [],
      "stateMutability": "nonpayable",
      "type": "function"
    }
  ],
  "transactionHash": "0x4a5ce913bd0fc44cf1b151bd20b724519b70c861bd9b64a7aab2555aaa5898ac",
  "args": [],
  "numDeployments": 1,
  "solcInputHash": "00f0230d52af69828fac7e9585dff72d",
  "bytecode": "0x608060405234801561001057600080fd5b50611c51806100206000396000f3fe608060405234801561001057600080fd5b50600436106100cf5760003560e01c80638bb5ada71161008c578063d15ee86b11610066578063d15ee86b14610200578063ef4245711461021e578063f7d0c96f1461024e578063fcfe2d0414610280576100cf565b80638bb5ada71461018257806392145e43146101b2578063b942ed73146101ce576100cf565b80630652c7b5146100d45780633c39a337146100f25780633e7b07f8146100fc578063469df765146101185780636d75d8eb1461014857806377839b0714610164575b600080fd5b6100dc6102b0565b6040516100e991906113f3565b60405180910390f35b6100fa6102b8565b005b61011660048036038101906101119190611471565b6103ab565b005b610132600480360381019061012d9190611471565b610515565b60405161013f91906114b9565b60405180910390f35b610162600480360381019061015d9190611500565b610540565b005b61016c610b15565b6040516101799190611558565b60405180910390f35b61019c60048036038101906101979190611471565b610b87565b6040516101a991906115c4565b60405180910390f35b6101cc60048036038101906101c791906115df565b610bfe565b005b6101e860048036038101906101e39190611471565b611134565b6040516101f79392919061161f565b60405180910390f35b610208611178565b6040516102159190611730565b60405180910390f35b61023860048036038101906102339190611471565b611266565b6040516102459190611794565b60405180910390f35b61026860048036038101906102639190611471565b6112fe565b604051610277939291906117af565b60405180910390f35b61029a600480360381019061029591906117e6565b611328565b6040516102a79190611835565b60405180910390f35b600042905090565b60001515600360003373ffffffffffffffffffffffffffffffffffffffff1673ffffffffffffffffffffffffffffffffffffffff16815260200190815260200160002060000160009054906101000a900460ff1615151461034e576040517f08c379a0000000000000000000000000000000000000000000000000000000008152600401610345906118ad565b60405180910390fd5b6001600360003373ffffffffffffffffffffffffffffffffffffffff1673ffffffffffffffffffffffffffffffffffffffff16815260200190815260200160002060000160006101000a81548160ff021916908315150217905550565b600115156000803373ffffffffffffffffffffffffffffffffffffffff1673ffffffffffffffffffffffffffffffffffffffff16815260200190815260200160002060000160009054906101000a900460ff16151503610440576040517f08c379a000000000000000000000000000000000000000000000000000000000815260040161043790611919565b60405180910390fd5b600260008273ffffffffffffffffffffffffffffffffffffffff1673ffffffffffffffffffffffffffffffffffffffff16815260200190815260200160002060405180602001604052803373ffffffffffffffffffffffffffffffffffffffff168152509080600181540180825580915050600190039060005260206000200160009091909190915060008201518160000160006101000a81548173ffffffffffffffffffffffffffffffffffffffff021916908373ffffffffffffffffffffffffffffffffffffffff160217905550505050565b60036020528060005260406000206000915090508060000160009054906101000a900460ff16905081565b6000600260003373ffffffffffffffffffffffffffffffffffffffff1673ffffffffffffffffffffffffffffffffffffffff168152602001908152602001600020828154811061059357610592611939565b5b906000526020600020016040518060200160405290816000820160009054906101000a900473ffffffffffffffffffffffffffffffffffffffff1673ffffffffffffffffffffffffffffffffffffffff1673ffffffffffffffffffffffffffffffffffffffff16815250509050600160003373ffffffffffffffffffffffffffffffffffffffff1673ffffffffffffffffffffffffffffffffffffffff1681526020019081526020016000206000015460016000836000015173ffffffffffffffffffffffffffffffffffffffff1673ffffffffffffffffffffffffffffffffffffffff16815260200190815260200160002060000154118061072b575061019060016000836000015173ffffffffffffffffffffffffffffffffffffffff1673ffffffffffffffffffffffffffffffffffffffff16815260200190815260200160002060000154600160003373ffffffffffffffffffffffffffffffffffffffff1673ffffffffffffffffffffffffffffffffffffffff168152602001908152602001600020600001546107289190611997565b11155b61076a576040517f08c379a000000000000000000000000000000000000000000000000000000000815260040161076190611a17565b60405180910390fd5b60011515600080836000015173ffffffffffffffffffffffffffffffffffffffff1673ffffffffffffffffffffffffffffffffffffffff16815260200190815260200160002060020160009054906101000a900460ff16151503610803576040517f08c379a00000000000000000000000000000000000000000000000000000000081526004016107fa90611a83565b60405180910390fd5b600260003373ffffffffffffffffffffffffffffffffffffffff1673ffffffffffffffffffffffffffffffffffffffff168152602001908152602001600020805490508210610887576040517f08c379a000000000000000000000000000000000000000000000000000000000815260040161087e90611aef565b60405180910390fd5b600115156000803373ffffffffffffffffffffffffffffffffffffffff1673ffffffffffffffffffffffffffffffffffffffff16815260200190815260200160002060000160009054906101000a900460ff1615150361091c576040517f08c379a000000000000000000000000000000000000000000000000000000000815260040161091390611919565b60405180910390fd5b60011515600080836000015173ffffffffffffffffffffffffffffffffffffffff1673ffffffffffffffffffffffffffffffffffffffff16815260200190815260200160002060000160009054906101000a900460ff161515036109b5576040517f08c379a00000000000000000000000000000000000000000000000000000000081526004016109ac90611b5b565b60405180910390fd5b6040518060600160405280600115158152602001428152602001600015158152506000803373ffffffffffffffffffffffffffffffffffffffff1673ffffffffffffffffffffffffffffffffffffffff16815260200190815260200160002060008201518160000160006101000a81548160ff0219169083151502179055506020820151816001015560408201518160020160006101000a81548160ff021916908315150217905550905050604051806060016040528060011515815260200142815260200160001515815250600080836000015173ffffffffffffffffffffffffffffffffffffffff1673ffffffffffffffffffffffffffffffffffffffff16815260200190815260200160002060008201518160000160006101000a81548160ff0219169083151502179055506020820151816001015560408201518160020160006101000a81548160ff0219169083151502179055509050505050565b610b1d61137f565b600360003373ffffffffffffffffffffffffffffffffffffffff1673ffffffffffffffffffffffffffffffffffffffff1681526020019081526020016000206040518060200160405290816000820160009054906101000a900460ff161515151581525050905090565b610b8f611394565b600160008373ffffffffffffffffffffffffffffffffffffffff1673ffffffffffffffffffffffffffffffffffffffff16815260200190815260200160002060405180606001604052908160008201548152602001600182015481526020016002820154815250509050919050565b600115156000808473ffffffffffffffffffffffffffffffffffffffff1673ffffffffffffffffffffffffffffffffffffffff16815260200190815260200160002060000160009054906101000a900460ff16151514610c93576040517f08c379a0000000000000000000000000000000000000000000000000000000008152600401610c8a90611bc7565b60405180910390fd5b600115156000808373ffffffffffffffffffffffffffffffffffffffff1673ffffffffffffffffffffffffffffffffffffffff16815260200190815260200160002060000160009054906101000a900460ff16151514610d28576040517f08c379a0000000000000000000000000000000000000000000000000000000008152600401610d1f90611bc7565b60405180910390fd5b6040518060600160405280600015158152602001428152602001600015158152506000808473ffffffffffffffffffffffffffffffffffffffff1673ffffffffffffffffffffffffffffffffffffffff16815260200190815260200160002060008201518160000160006101000a81548160ff0219169083151502179055506020820151816001015560408201518160020160006101000a81548160ff0219169083151502179055509050506040518060600160405280600015158152602001428152602001600115158152506000808373ffffffffffffffffffffffffffffffffffffffff1673ffffffffffffffffffffffffffffffffffffffff16815260200190815260200160002060008201518160000160006101000a81548160ff0219169083151502179055506020820151816001015560408201518160020160006101000a81548160ff02191690831515021790555090505060405180606001604052806064600160008673ffffffffffffffffffffffffffffffffffffffff1673ffffffffffffffffffffffffffffffffffffffff16815260200190815260200160002060000154610eda9190611be7565b815260200160018060008673ffffffffffffffffffffffffffffffffffffffff1673ffffffffffffffffffffffffffffffffffffffff16815260200190815260200160002060010154610f2d9190611be7565b8152602001600160008573ffffffffffffffffffffffffffffffffffffffff1673ffffffffffffffffffffffffffffffffffffffff16815260200190815260200160002060020154815250600160008473ffffffffffffffffffffffffffffffffffffffff1673ffffffffffffffffffffffffffffffffffffffff1681526020019081526020016000206000820151816000015560208201518160010155604082015181600201559050506040518060600160405280600a600160008573ffffffffffffffffffffffffffffffffffffffff1673ffffffffffffffffffffffffffffffffffffffff168152602001908152602001600020600001546110329190611be7565b8152602001600160008473ffffffffffffffffffffffffffffffffffffffff1673ffffffffffffffffffffffffffffffffffffffff16815260200190815260200160002060010154815260200160018060008573ffffffffffffffffffffffffffffffffffffffff1673ffffffffffffffffffffffffffffffffffffffff168152602001908152602001600020600201546110cd9190611be7565b815250600160008373ffffffffffffffffffffffffffffffffffffffff1673ffffffffffffffffffffffffffffffffffffffff1681526020019081526020016000206000820151816000015560208201518160010155604082015181600201559050505050565b60006020528060005260406000206000915090508060000160009054906101000a900460ff16908060010154908060020160009054906101000a900460ff16905083565b6060600260003373ffffffffffffffffffffffffffffffffffffffff1673ffffffffffffffffffffffffffffffffffffffff168152602001908152602001600020805480602002602001604051908101604052809291908181526020016000905b8282101561125d578382906000526020600020016040518060200160405290816000820160009054906101000a900473ffffffffffffffffffffffffffffffffffffffff1673ffffffffffffffffffffffffffffffffffffffff1673ffffffffffffffffffffffffffffffffffffffff1681525050815260200190600101906111d9565b50505050905090565b61126e6113b5565b6000808373ffffffffffffffffffffffffffffffffffffffff1673ffffffffffffffffffffffffffffffffffffffff1681526020019081526020016000206040518060600160405290816000820160009054906101000a900460ff16151515158152602001600182015481526020016002820160009054906101000a900460ff1615151515815250509050919050565b60016020528060005260406000206000915090508060000154908060010154908060020154905083565b6002602052816000526040600020818154811061134457600080fd5b90600052602060002001600091509150508060000160009054906101000a900473ffffffffffffffffffffffffffffffffffffffff16905081565b60405180602001604052806000151581525090565b60405180606001604052806000815260200160008152602001600081525090565b6040518060600160405280600015158152602001600081526020016000151581525090565b6000819050919050565b6113ed816113da565b82525050565b600060208201905061140860008301846113e4565b92915050565b600080fd5b600073ffffffffffffffffffffffffffffffffffffffff82169050919050565b600061143e82611413565b9050919050565b61144e81611433565b811461145957600080fd5b50565b60008135905061146b81611445565b92915050565b6000602082840312156114875761148661140e565b5b60006114958482850161145c565b91505092915050565b60008115159050919050565b6114b38161149e565b82525050565b60006020820190506114ce60008301846114aa565b92915050565b6114dd816113da565b81146114e857600080fd5b50565b6000813590506114fa816114d4565b92915050565b6000602082840312156115165761151561140e565b5b6000611524848285016114eb565b91505092915050565b6115368161149e565b82525050565b602082016000820151611552600085018261152d565b50505050565b600060208201905061156d600083018461153c565b92915050565b61157c816113da565b82525050565b6060820160008201516115986000850182611573565b5060208201516115ab6020850182611573565b5060408201516115be6040850182611573565b50505050565b60006060820190506115d96000830184611582565b92915050565b600080604083850312156115f6576115f561140e565b5b60006116048582860161145c565b92505060206116158582860161145c565b9150509250929050565b600060608201905061163460008301866114aa565b61164160208301856113e4565b61164e60408301846114aa565b949350505050565b600081519050919050565b600082825260208201905092915050565b6000819050602082019050919050565b61168b81611433565b82525050565b6020820160008201516116a76000850182611682565b50505050565b60006116b98383611691565b60208301905092915050565b6000602082019050919050565b60006116dd82611656565b6116e78185611661565b93506116f283611672565b8060005b8381101561172357815161170a88826116ad565b9750611715836116c5565b9250506001810190506116f6565b5085935050505092915050565b6000602082019050818103600083015261174a81846116d2565b905092915050565b606082016000820151611768600085018261152d565b50602082015161177b6020850182611573565b50604082015161178e604085018261152d565b50505050565b60006060820190506117a96000830184611752565b92915050565b60006060820190506117c460008301866113e4565b6117d160208301856113e4565b6117de60408301846113e4565b949350505050565b600080604083850312156117fd576117fc61140e565b5b600061180b8582860161145c565b925050602061181c858286016114eb565b9150509250929050565b61182f81611433565b82525050565b600060208201905061184a6000830184611826565b92915050565b600082825260208201905092915050565b7f63616e206e6f7420737461727420616761696e00000000000000000000000000600082015250565b6000611897601383611850565b91506118a282611861565b602082019050919050565b600060208201905081810360008301526118c68161188a565b9050919050565b7f63757272656e746c79206d6174636820676f696e67206f6e0000000000000000600082015250565b6000611903601883611850565b915061190e826118cd565b602082019050919050565b60006020820190508181036000830152611932816118f6565b9050919050565b7f4e487b7100000000000000000000000000000000000000000000000000000000600052603260045260246000fd5b7f4e487b7100000000000000000000000000000000000000000000000000000000600052601160045260246000fd5b60006119a2826113da565b91506119ad836113da565b92508282039050818111156119c5576119c4611968565b5b92915050565b7f6e6f7420656c696769626c650000000000000000000000000000000000000000600082015250565b6000611a01600c83611850565b9150611a0c826119cb565b602082019050919050565b60006020820190508181036000830152611a30816119f4565b9050919050565b7f616c726561647920646566656174656400000000000000000000000000000000600082015250565b6000611a6d601083611850565b9150611a7882611a37565b602082019050919050565b60006020820190508181036000830152611a9c81611a60565b9050919050565b7f496e76616c69642073656c656374696f6e000000000000000000000000000000600082015250565b6000611ad9601183611850565b9150611ae482611aa3565b602082019050919050565b60006020820190508181036000830152611b0881611acc565b9050919050565b7f63616e27742072746e0000000000000000000000000000000000000000000000600082015250565b6000611b45600983611850565b9150611b5082611b0f565b602082019050919050565b60006020820190508181036000830152611b7481611b38565b9050919050565b7f696e760000000000000000000000000000000000000000000000000000000000600082015250565b6000611bb1600383611850565b9150611bbc82611b7b565b602082019050919050565b60006020820190508181036000830152611be081611ba4565b9050919050565b6000611bf2826113da565b9150611bfd836113da565b9250828201905080821115611c1557611c14611968565b5b9291505056fea2646970667358221220985e41127637e014b4a4cfc6b0c5469b69e98f8cb3315c585118acff54cc31fe64736f6c63430008140033",
  "devdoc": {
    "kind": "dev",
    "methods": {},
    "version": 1
  },
  "userdoc": {
    "kind": "user",
    "methods": {},
    "version": 1
  },
  "storageLayout": {
    "storage": [
      {
        "astId": 856,
        "contract": "contracts/btthPvP.sol:pvp",
        "label": "matchInfoReCeipt",
        "offset": 0,
        "slot": "0",
        "type": "t_mapping(t_address,t_struct(matchInfo)848_storage)"
      },
      {
        "astId": 861,
        "contract": "contracts/btthPvP.sol:pvp",
        "label": "prestigeMap",
        "offset": 0,
        "slot": "1",
        "type": "t_mapping(t_address,t_struct(prestigePoints)838_storage)"
      },
      {
        "astId": 867,
        "contract": "contracts/btthPvP.sol:pvp",
        "label": "challengeList",
        "offset": 0,
        "slot": "2",
        "type": "t_mapping(t_address,t_array(t_struct(challenged)841_storage)dyn_storage)"
      },
      {
        "astId": 872,
        "contract": "contracts/btthPvP.sol:pvp",
        "label": "startpvp",
        "offset": 0,
        "slot": "3",
        "type": "t_mapping(t_address,t_struct(initiatePvP)851_storage)"
      }
    ],
    "types": {
      "t_address": {
        "encoding": "inplace",
        "label": "address",
        "numberOfBytes": "20"
      },
      "t_array(t_struct(challenged)841_storage)dyn_storage": {
        "base": "t_struct(challenged)841_storage",
        "encoding": "dynamic_array",
        "label": "struct pvp.challenged[]",
        "numberOfBytes": "32"
      },
      "t_bool": {
        "encoding": "inplace",
        "label": "bool",
        "numberOfBytes": "1"
      },
      "t_mapping(t_address,t_array(t_struct(challenged)841_storage)dyn_storage)": {
        "encoding": "mapping",
        "key": "t_address",
        "label": "mapping(address => struct pvp.challenged[])",
        "numberOfBytes": "32",
        "value": "t_array(t_struct(challenged)841_storage)dyn_storage"
      },
      "t_mapping(t_address,t_struct(initiatePvP)851_storage)": {
        "encoding": "mapping",
        "key": "t_address",
        "label": "mapping(address => struct pvp.initiatePvP)",
        "numberOfBytes": "32",
        "value": "t_struct(initiatePvP)851_storage"
      },
      "t_mapping(t_address,t_struct(matchInfo)848_storage)": {
        "encoding": "mapping",
        "key": "t_address",
        "label": "mapping(address => struct pvp.matchInfo)",
        "numberOfBytes": "32",
        "value": "t_struct(matchInfo)848_storage"
      },
      "t_mapping(t_address,t_struct(prestigePoints)838_storage)": {
        "encoding": "mapping",
        "key": "t_address",
        "label": "mapping(address => struct pvp.prestigePoints)",
        "numberOfBytes": "32",
        "value": "t_struct(prestigePoints)838_storage"
      },
      "t_struct(challenged)841_storage": {
        "encoding": "inplace",
        "label": "struct pvp.challenged",
        "members": [
          {
            "astId": 840,
            "contract": "contracts/btthPvP.sol:pvp",
            "label": "challenger",
            "offset": 0,
            "slot": "0",
            "type": "t_address"
          }
        ],
        "numberOfBytes": "32"
      },
      "t_struct(initiatePvP)851_storage": {
        "encoding": "inplace",
        "label": "struct pvp.initiatePvP",
        "members": [
          {
            "astId": 850,
            "contract": "contracts/btthPvP.sol:pvp",
            "label": "isPvPactive",
            "offset": 0,
            "slot": "0",
            "type": "t_bool"
          }
        ],
        "numberOfBytes": "32"
      },
      "t_struct(matchInfo)848_storage": {
        "encoding": "inplace",
        "label": "struct pvp.matchInfo",
        "members": [
          {
            "astId": 843,
            "contract": "contracts/btthPvP.sol:pvp",
            "label": "match_goingOn",
            "offset": 0,
            "slot": "0",
            "type": "t_bool"
          },
          {
            "astId": 845,
            "contract": "contracts/btthPvP.sol:pvp",
            "label": "s_lastTimeStamp",
            "offset": 0,
            "slot": "1",
            "type": "t_uint256"
          },
          {
            "astId": 847,
            "contract": "contracts/btthPvP.sol:pvp",
            "label": "s_isLastDefeated",
            "offset": 0,
            "slot": "2",
            "type": "t_bool"
          }
        ],
        "numberOfBytes": "96"
      },
      "t_struct(prestigePoints)838_storage": {
        "encoding": "inplace",
        "label": "struct pvp.prestigePoints",
        "members": [
          {
            "astId": 833,
            "contract": "contracts/btthPvP.sol:pvp",
            "label": "points",
            "offset": 0,
            "slot": "0",
            "type": "t_uint256"
          },
          {
            "astId": 835,
            "contract": "contracts/btthPvP.sol:pvp",
            "label": "win",
            "offset": 0,
            "slot": "1",
            "type": "t_uint256"
          },
          {
            "astId": 837,
            "contract": "contracts/btthPvP.sol:pvp",
            "label": "loss",
            "offset": 0,
            "slot": "2",
            "type": "t_uint256"
          }
        ],
        "numberOfBytes": "96"
      },
      "t_uint256": {
        "encoding": "inplace",
        "label": "uint256",
        "numberOfBytes": "32"
      }
    }
  }
}